:100000000C942A000C943F000C943F000C943F0089
:100010000C943F000C943F000C943F000C943F0064
:100020000C943F000C943F000C943F000C943F0054
:100030000C943F000C943F000C943F000C943F0044
:100040000C943F000C943F000C943F000C943F0034
:100050000C943F0011241FBECFE5D4E0DEBFCDBF1E
:1000600010E0A0E6B0E0E6E6F4E002C005900D92F4
:10007000A43BB107D9F70E94B6000C9431020C944E
:10008000000082E085BB83ED90E30197F1F700C0AB
:10009000000015BA089581E085BB8FE996E8A1E0DC
:1000A00081509040A040E1F700C0000015BA0895CB
:1000B00084EE86B910BE0895806487B989EF90E018
:1000C0000197F1F700C0000024B135B1932F80E013
:1000D00030E0282B392B822F932F08950E945C004B
:1000E00008950E945C0008950E945C00089595E0C8
:1000F00092BB88BB89EF90E00197F1F700C0000048
:1001000081E082BB89EF90E00197F1F700C0000029
:10011000089594E092BB88BB89EF90E00197F1F7D6
:1001200000C0000012BA89EF90E00197F1F700C01B
:100130000000089588E30E94890081E00E94890000
:1001400086E00E9489008EE00E9489000895CF9386
:10015000DF93EC018881882331F021960E9477009B
:1001600089918823D9F7DF91CF9108952F923F92FB
:100170004F925F926F927F928F929F92AF92BF92B7
:10018000CF92DF92EF92FF920F931F93CF93DF9363
:100190008FEF87BB87E081BB8FE084BB0E94580054
:1001A0000E949A0080E690E00E94A70080EC0E94E6
:1001B000890080E790E00E94A7008FE996E8A1E01F
:1001C00081509040A040E1F700C000008FE996E820
:1001D000A1E081509040A040E1F700C000008FE90D
:1001E00096E8A1E081509040A040E1F700C00000F7
:1001F0008FE996E8A1E081509040A040E1F700C06F
:1002000000000F2EF8E7EF2EF0E0FF2EF02D0F2E5E
:10021000F8E8CF2EF0E0DF2EF02D0F2EF2E82F2E93
:10022000F0E03F2EF02D0F2EFDE74F2EF0E05F2E79
:10023000F02D0F2EF8E9AF2EF0E0BF2EF02D0F2E8F
:10024000F0EA8F2EF0E09F2EF02D0F2EF0E96F2EAA
:10025000F0E07F2EF02D80E00E946E008C0181E0A6
:100260000E947100EC0182E00E94740091E003376B
:100270001907C4F5A1E0C23CDA077CF081E00E94D6
:100280008900C7010E94A70080EC0E948900C2017A
:100290000E94A7000E944B00DECFB1E0C337DB070E
:1002A0007CF481E00E948900C7010E94A70080ECD5
:1002B0000E948900C1010E94A7000E944B00CBCF81
:1002C00081E00E94890081E00E948900C7010E94AC
:1002D000A70080EC0E948900C6010E94A7000E942E
:1002E0004B00B9CF81E00C3C1807ACF191E0C23C67
:1002F000D9077CF081E00E948900C3010E94A70019
:1003000080EC0E948900C2010E94A7000E94410067
:10031000A2CFA1E0CD37DA077CF481E00E9489000A
:10032000C3010E94A70080EC0E948900C1010E94C5
:10033000A7000E9441008FCF81E00E948900C30185
:100340000E94A70080EC0E948900C6010E94A700BD
:100350000E94410080CF15BA81E00E948900C5014A
:100360000E94A70080EC0E948900C4010E94A7009F
:100370008FE996E8A1E081509040A040E1F700C0ED
:1003800000008FE996E8A1E081509040A040E1F79D
:1003900000C000008FE996E8A1E081509040A040A5
:1003A000E1F700C000008FE996E8A1E0815090409D
:1003B000A040E1F700C000004ECFCF93DF93462F5F
:1003C000CDEAD0E0BE0150E00E94EC01CE010E94D7
:1003D000A700DF91CF910895FB019F01E89442307F
:1003E000C4F04532B4F44A3029F497FB1EF49095DA
:1003F00081959F4F642F77270E941D02805D8A336D
:100400000CF0895D8193CB010097A1F716F45DE2B2
:1004100051931082C9010C940D02DC01FC01672F7D
:1004200071917723E1F7329704C07C916D937083CB
:100430006291AE17BF07C8F30895AA1BBB1B51E119
:1004400007C0AA1FBB1FA617B70710F0A61BB70B44
:10045000881F991F5A95A9F780959095BC01CD01E9
:060460000895F894FFCF9F
:100466004D6963726F70726F636573736F7220008C
:1004760070726F6A656374006261636B006C6566B7
:1004860074007269676874002E202E202E202E00BC
:10049600666F7277617264006E6F206D6F766500AD
:1004A600666F722032207365636F6E640030303081
:0404B60030300000E2
:00000001FF
